:0300000002385073
:0C385000787FE4F6D8FD758107023897F8
:103D5100687474703A2F2F74746D63752E74616F6B
:103D610062616F2E636F6D004C43445F573A004CA4
:103D710043445F483A0056583A0056793A0043485E
:083D8100583A004348593A008A
:043C85004100A80052
:103B2D00123E76EF701E74FFFFFE123B8B74FF90FA
:103B3D000093F0A3F090008E74F8F0A3E4F012352A
:103B4D005D7F012220B2061213737F01227F0020B8
:103B5D00B32B7EF8123B8B7FB87E0B123DBC7FE002
:103B6D007E07123B8B7FB87E0B123DBC7F1F7E0004
:0E3B7D00123B8B7FB87E0B123DBC7F012222D3
:1028090074FF900093F0A3F090008E74F8F0A3E4A5
:10281900F0FBFDFC7F0AFE1236367B01E4FDFC7FEE
:102829002DFE1236367BFF7A3D79517D237C007F60
:102839000A7E001237AF7BFF7A3D79697D377C00CC
:102849007F0A7E001237AF9000471225E10000038E
:102859002090004B7403F07D377C007F467E001288
:10286900347C7BFF7A3D79707D377C007F6E7E00FA
:102879001237AF9000471225E1000001E090004BAC
:102889007403F07D377C007FA07E0012347C9000B9
:1028990006E4F0A3740AF0A3E4F0A3744BF07BFF01
:1028A9007A3D7977FD7C007F0A7E001237AF900070
:1028B90007E02428F0900006E03400F09000A4E03E
:1028C900FEA3E0FFE4FCFD9000471225D590004BE4
:1028D9007405F0900008E0FCA3E0FD900006E0FE1E
:1028E900A3E0FF12347C900007E0243CF09000063E
:1028F900E03400F0E0FEA3E0FFA3E0FCA3E0FD7BF1
:10290900FF7A3D797B1237AF900007E02428F090D9
:102919000006E03400F09000A6E0FEA3E0FFE4FC2E
:10292900FD9000471225D590004B7405F0900008E2
:10293900E0FCA3E0FD900006E0FEA3E0FF12347C7A
:10294900900006E4F0A3740AF0A3E4F0A3745FF026
:102959007BFF7A3D797FFD7C007F0A7E001237AFCD
:10296900900007E02428F0900006E03400F0900081
:1029790098E0FEA3E0FFE4FCFD9000471225D59006
:10298900004B7405F0900008E0FCA3E0FD90000600
:10299900E0FEA3E0FF12347C900007E0243CF090B5
:1029A9000006E03400F0E0FEA3E0FFA3E0FCA3E0B2
:1029B900FD7BFF7A3D79841237AF900007E0242828
:1029C900F0900006E03400F090009AE0FEA3E0FFEA
:1029D900E4FCFD9000471225D590004B7405F0905A
:1029E9000008E0FCA3E0FD900006E0FEA3E0FF0282
:0229F900347C2C
:10317C0074FFFFFE123B8B122809900004E4F0A3AD
:10318C007403F0E4900002F0A3F0900002E0FAA3C4
:10319C00E0FB7C007D28FFAE021223FDC006C007B9
:1031AC00A3E0FEA3E0FF1223FDC006C007AF03AEF1
:1031BC00021223FDEF2427FBE43EFA900004E0FE0C
:1031CC00A3E0FF1223FDEF2427FFE43E900069F0FB
:1031DC00A3EFF0D005D004D007D006123D17E49031
:1031EC000000F0A3F0123B2DEF60079000A87401D3
:1031FC00F022900001E025E0FD900000E033FC742B
:10320C00042DF58274003CF583E493FF74032DF5D3
:10321C008274003CF583E493FD123E7C900001E047
:10322C0004F07006900000E004F0C3900001E094FC
:10323C0040900000E06480948640AA900003E00473
:10324C00F07006900002E004F0C3900003E09414C8
:10325C00900002E064809480500302319690000547
:10326C00E004F07006900004E004F0C3900005E068
:10327C00940B900004E064809480500302318FE43E
:04328C009000A8F016
:01329000221B
:103D8900123E6D122D8474FFFFFE123B8BE49000EE
:103D990093F0A3F074FF90008EF0A3F012317C121F
:103DA9003B2DEF600312317C9000A8E060F11231E5
:033DB9007C80EC1F
:023E810020001F
:103C8900420086031F42008203A042008C002E429C
:103C99000091000F4100903042008A01DF42008408
:103CA900020D42009500104200880008410097105B
:0B3E57008FA0AF058F80C2B6D2B6224C
:053E7C00D2B5023E5723
:093E3500A3E0FF123E3EA3E0FFF2
:0B3E3E00AD07AC06D2B5ECFF023E570A
:0B3E6200AD07AC06C2B5ECFF023E57F6
:0E3E4900AB05AA04123E62AE02AF03023E3E7B
:103D1700900063EEF0A3EFF0A3ECF0A3EDF07F2AA1
:103D27007E00123E62900063123E36EAFF123E3E6C
:103D3700AF037E00123E3E7F2B123E62123E35904D
:0A3D47000069123E367F2C023E6236
:102D8400D29020905BE4FDFCFFFE123E497BFF7A6B
:102D94003E7981E4FDFCFFFE1237AF900047122517
:102DA400E100000000E490004BF0FDFCFFFE123453
:102DB4007CE4900006F0FBFAFDFCFFFE123962E4AD
:102DC400FDFCFFFE123C39E4900006F0A3F0FBFA90
:102DD400FDFCFFFE123705E4FBFDFCFFFE1226128C
:102DE400D2B7D2B6C2927F147E00123DBCD2927F7B
:102DF400147E00123DBCC2907FE27E00123E627FD0
:102E040023123E3E7F02123E3E7F04123E3E7FE08E
:102E1400123E627F01123E3E7F01123DBC7FE07E86
:102E240000123E627F03123E3E7F05123DBC7F01CD
:102E34007E00123E627F05123DBC7FE67E00123E9C
:102E4400627F03123E3E7FFF123E3E7FFF123E3EF4
:102E54007FB0123E627F27123E3EE4FF123E3E9058
:102E64000086123E3690008A123E36E4FF123E3E41
:102E74007FB4123E62900082123E3690008C123E65
:102E840036900090E0FF123E3E123E35E4FF123EC3
:102E94003E7FB6123E62900084123E36900095E06A
:102EA400FF123E3E123E35900088123E367FBA1223
:102EB4003E627F0F123E3E7FB8123E627F07123E93
:102EC4003E7F01123E3E7F36123E62E4FF123E3EDA
:102ED4007FF0123E627F03123E3E7F05123DBC7FAF
:102EE400297E00123E627FD0123E627F0D023E3E7A
:023B8B00AC0686
:103B8D00EC90004AF0A9079000697401F0A374DF6E
:103B9D00F07B1F7A03E4FDFCFFFE123D17E490005D
:103BAD004BF0A3F0E4FBFA90004AE0FFAD01123EAA
:103BBD007C0BBB00010ABA01EEBBE0EB90004CE0C0
:103BCD0004F0700690004BE004F0C390004CE094BC
:093BDD002090004BE0940340CB62
:013BE60022BC
:1036360090000AEEF0A3EFF090000EEBF090000C75
:05364600ECF0A3EDF023
:10364B0090001174FFF0A3740CF0A37483F090003E
:10365B000AE0FAA3E0FFAE02C006C007241FFBE49A
:10366B003AFAA3E0FEA3E0241FFFE43E900069F0CA
:10367B00A3EFF0D007D006123D1790000EE075F0C7
:10368B0080A4FF900012E5F08FF0122464E4900008
:10369B0010F0E490000FF090000FE0FFC39408507F
:1036AB0042900011E0FBA3E0FAA3E0F91223E4FD42
:1036BB007C0074017E00A807088005C333CE33CE8F
:1036CB00D8F9FFEE5CFEEF5D4E600590008E800337
:1036DB00900093E0FEA3E0FF123E3E90000FE0044B
:1036EB00F080B4900012E475F00112246490001085
:0936FB00E004F0E0C39480409962
:0137040022A2
:103BE700900004E0FEA3E0FF900001E02FFF9000AB
:103BF70000E03E900006FEE0FCA3E0FD900003E03D
:083C07002DFD900002E03CFCE1
:103C0F00AB07AA068D828C83C006C007AE83AF8236
:103C1F00900069EEF0A3EFF0D007D006123D179099
:0A3C2F00008EE0FEA3E0FF023E3E1F
:103C3900AB07AA068D828C83EB24FFFFEA34FFFED3
:103C4900C006C007E58224FFFDE58334FFFCEB24B1
:103C590001FBE43AFAAE83AF82EF2401FFE43E9020
:103C69000010F0A3EFF090008EE0FFA3E0900012A7
:0C3C7900CFF0A3EFF0D007D0060238DC3B
:1038DC0090000AEEF0A3EFF0A3ECF0A3EDF0A3EA56
:0438EC00F0A3EBF06A
:1038F000C007A3E0FFA3E0900069CFF0A3EFF0D0F2
:1039000007123D1790000CE0FFA3E0900014CFF0E9
:10391000A3EFF0900010E0FEA3E0FFD3900015E0CD
:103920009F900014E09E503990000AE0FEA3E0FB57
:10393000AA06C390000FE09B90000EE09A40129000
:103940000012E0FEA3E0FF123E3E0BBB00010A8026
:10395000E1900015E004F070BA900014E004F080EB
:01396000B2B4
:013961002243
:0E29FB00900047EEF0A3EFF0A3ECF0A3EDF098
:102A0900E4900051F0A3F0A3F0A3F0900047E0FE9A
:102A1900A3E0FFC3EB9FFFEA9E900055F0A3EFF000
:102A2900900049E0FAA3E0FBC390004EE09BFE90C2
:102A3900004DE09A900057F0A3CEF0900047E0FFD8
:102A4900A3E090005FCFF0A3EFF0A3EAF0A3EBF0CF
:102A5900900055E0FEA3E0FFD39400EE64809480DB
:102A6900400A90005BE4F0A304F08021EF4E700867
:102A790090005BF0A3F0801574FF90005BF0A3F069
:102A8900C3E49FFFE49E900055F0A3EFF090005738
:102A9900E0FEA3E0FFD39400EE64809480400A90A6
:102AA900005DE4F0A304F08021EF4E700890005D12
:102AB900F0A3F0801574FF90005DF0A3F0C3E49FCC
:102AC900FFE49E900057F0A3EFF0900057E0FEA3BB
:102AD900E0FF900055E0FCA3E0FDD39FEE6480F891
:102AE900EC6480989000594007ECF0A3EDF0800564
:102AF900EEF0A3EFF0E490004FF0A3F090005AE05D
:102B09002401FF900059E03400FED3900050E09F6B
:102B190090004FE09E4003022BE590005FE0FEA38A
:102B2900E0FFA3E0FCA3E0FD123C0F900055E0FE9E
:102B3900A3E0FF900052E02FF0900051E03EF090AA
:102B49000057E0FEA3E0FF900054E02FF0900053FF
:102B5900E03EF0900059E0FEA3E0FF900051E0FC58
:102B6900A3E0FDD39FEE6480F8EC6480984020EDEB
:102B79009FFFEC9E900051F0A3EFF090005BE0FE08
:102B8900A3E0FF900060E02FF090005FE03EF0903E
:102B99000059E0FEA3E0FF900053E0FCA3E0FDD361
:102BA9009FEE6480F8EC6480984020ED9FFFEC9ED6
:102BB900900053F0A3EFF090005DE0FEA3E0FF90DA
:102BC9000062E02FF0900061E03EF0900050E004D8
:0C2BD900F0700690004FE004F0022B05A5
:012BE50022CD
:10370500900004EAF0A3EBF0900000EEF0A3EFF0D8
:10371500A3ECF0A3EDF0C007A3E0FAA3E0FB900053
:1037250002E0FFA3E090004DCFF0A3EFF0D0071229
:1037350029FB900000E0FAA3E0FBFFAE02C007A35F
:10374500E0FCA3E0FD900006E0FFA3E090004DCF74
:10375500F0A3EFF0D0071229FB900006E0FCA3E0F0
:10376500FD900004E0FAA3E0FBA3E0FFA3E09000D6
:103775004DCFF0A3EFF0900000E0FEA3E0FF12298B
:10378500FB900004E0FAA3E0FBFFAE02C007900047
:1037950002E0FCA3E0FD900006E0FFA3E090004DF1
:0A37A500CFF0A3EFF0D0070229FBDC
:0E261200900000EEF0A3EFF0A3ECF0A3EDF0CB
:10262000E4A3F0A3F0EBFF7E00A3EEF0A3EFF02510
:10263000E0FFEE33FEC374039F900009F0E49E9028
:102640000008F0900006E0FEA3E0FFD3900005E054
:102650009FEE6480F8900004E064809840030228B4
:1026600008C3900001E09FFF900000E09EFE9000F4
:1026700004E0FCA3E0FDC3900003E09DFD90000298
:10268000E09CFC123C0F900006E0FEA3E0FF9000EF
:1026900001E02FFF900000E03EFE900004E0FCA36C
:1026A000E0FDC3900003E09DFD900002E09CFC1261
:1026B0003C0F900004E0FEA3E0FFC3900001E09F08
:1026C000FF900000E09E123BFA900006E0FEA3E0BF
:1026D000FFC3900001E09FFF900000E09EFE90008D
:1026E00004E0FCA3E0FDC3900003E09DFD90000228
:1026F000E09CFC123C0F900004E0FEA3E0FFC390BE
:102700000001E09FFF900000E09EFE900006E0FCCC
:10271000A3E0FDC3900003E09DFD900002E09CFC5F
:10272000123C0F900006E0FEA3E0FF900001E02FB6
:10273000FF900000E03E900004123BFD900004E09A
:10274000FEA3E0FF900001E02FFF900000E03EFEBE
:10275000900006E0FCA3E0FDC3900003E09DFD9027
:102760000002E09CFC123C0F123BE7900006E0FEEA
:10277000A3E0FFC3900001E09FFF900000E09EFEF9
:10278000900004123BFE900005E004F070069000FB
:1027900004E004F0C3900008E0648094805024902A
:1027A0000004E0FEA3E07802C333CE33CED8F92490
:1027B00006FFE43EFE900009E02FF0900008E03EA6
:1027C000F0803F900006E0FEA3E0FFC3900005E02C
:1027D0009FFF900004E09EFEEF7802C333CE33CE1D
:1027E000D8F9240AFFE43EFE900009E02FF09000A3
:1027F00008E03EF0900007E024FFF0900006E0348F
:08280000FFF0123BE702264342
:0128080022AD
:062BE600FBE4900054F036
:102BEC0090004FEEF0A3EFF0A3ECF0A3EDF0A3EB0D
:012BFC00F0E8
:102BFD0090004FE0FEA3E0FF900057EEF0A3EFF042
:102C0D0090008EE0FDA3E0900059CDF0A3EDF0D340
:102C1D00EF9410EE94034003022D83900051E0FCDD
:102C2D00A3E0FD94D0EC94014003022D839000535A
:102C3D00E024E0F090004FE0FAA3E0FFAE02C00602
:102C4D00C0072407FBE43AFAA3E0FEA3E0240FFF3C
:102C5D00E43E900069F0A3EFF0D007D006123D17C7
:102C6D00900054E06003022D0BF9900053E075F0D5
:102C7D0010A4FFE97C002FFFEC35F0FE74832FF5D7
:102C8D0082740D3EF583E493900055F0E4A3F0902B
:102C9D000055E030E0059000598003900093E0FF6F
:102CAD00A3E090008ECFF0A3EFF090008EE0FEA396
:102CBD00E0FF123E3E900055E0C313F0900050E04F
:102CCD0004F0700690004FE004F0900056E004F020
:102CDD00E0C3940840B9900057E0FFA3E090004F87
:102CED00CFF0A3EFF0900052E004F0700690005189
:102CFD00E004F009E964106003022C778069E4F9BF
:102D0D00900053E075F010A4FFE97C002FFFEC3527
:102D1D00F0FE74832FF582740D3EF583E4939000DD
:102D2D0055F0E4A3F0900056E0FFC39408503390A3
:102D3D000055E030E01F900050E02FFF90004FE075
:102D4D003400FEE9FD900052E02DFD900051E0347D
:102D5D0000FC123C0F900055E0C313F0A3E004F00B
:102D6D0080C309E9B41099900059E0FFA3E09000E9
:062D7D008ECFF0A3EFF081
:012D8300222D
:083CCE0090004FEFF0A3EDF0B0
:103CD600A31225E100000001900050E0FF14F0EF70
:103CE6006020A3E0F8A3E0F9A3E0FAA3E0FB9000CC
:103CF6004FE0FFE4FCFDFE1224999000511225D5F9
:103D060080D6900051E0FCA3E0FDA3E0FEA3E0FF17
:013D1600228A
:0E347C00900043EEF0A3EFF0A3ECF0A3EDF010
:10348A00E490004EF0900047A3A3E0FEA3E0FFE41F
:10349A00FCFD9000471225D5E490004CF090004BBB
:1034AA00E0FFA3E0FEC39F400302355CC3EF9E1416
:1034BA00FD7F0A123CCEA804A905AA06AB07900014
:1034CA0047E0FCA3E0FDA3E0FEA3E0FF122524E40D
:1034DA007B0AFAF9F812252490004DEBF0A3E0706C
:1034EA003B90004BE014FFA3E0FEC39F502EA3E0E5
:1034FA007024EE75F008A4FF900044E02FFF9000BE
:10350A0043E035F0FE900045E0FCA3E0FDE49000C6
:10351A0054F07B20803090004E7401F090004CE013
:10352A0075F008A4FF900044E02FFF900043E035B7
:10353A00F0FE900045E0FCA3E0FD90004DE0243051
:10354A00FBE4900054F0122BEC90004CE004F002E3
:02355A0034A794
:01355C00224C
:10396200900000EEF0A3EFF0A3ECF0A3EDF0A3EAD9
:04397200F0A3EBF0E3
:10397600E4900007F0900006E0F9A3E0FFC3995039
:103986005CC3E99F14FD7F0A123CCEA804A905AAD0
:1039960006AB07900004E0FEA3E0FFE4FCFD122561
:1039A60024E47B0AFAF9F8122524AF03900008EF05
:1039B600F0900007E075F008A4FF900001E02FFFEB
:1039C600900000E035F0FE900002E0FCA3E0FDEB85
:0D39D6002430122BE6900007E004F08098EA
:0139E30022C1
:1037AF00900043EEF0A3EFF0A3ECF0A3EDF0A3EB4A
:1037BF00F0A3EAF0A3E9F0900047E0FBA3E0FAA33F
:1037CF00E0F91223E46079D3900044E09410900064
:1037DF0043E094034012E4F0A3F0900046E024107D
:1037EF00F0900045E03400F0D3900046E094D09084
:1037FF000045E094014011E4900043F0A3F0A3F0E2
:10380F00A3F0FF7EF8123B8B900043E0FEA3E0FF96
:10381F00A3E0FCA3E0FDA3E0FBA3E0FAA3E0F91211
:10382F0023E4122BE6900044E02408F0900043E0DC
:10383F003400F0900048E475F0011224640237C69A
:01384F002256
:103DBC00E4FDFCC3ED9FEE6480F8EC648098501534
:103DCC00E4FBFA0BBB00010ABA03F8BBE8F50DBD26
:053DDC0000010C80DE77
:013DE10022BF
:10000300FFFFFFFFFFFFFFFFFFFFFFFFFFFFFFFFFD
:10001300FFFFFFFFFFFFFFFFFFFFFFFFBEF77DEFC8
:10002300BAD6B6B5F39CB294B39CB29434A5F7BDDB
:10003300FBDE7DEFFFFFFFFFFFFFFFFFFFFFFFFF84
:10004300FFFFFFFFFFFFFFFFFFFFFFFFFFFFFFFFBD
:10005300FFFFFFFFFFFFFFFFFFFFFFFFFFFFFFFFAD
:10006300FFFFFFFFFFFFFFFFBEF7FBDEF39CCB5A53
:10007300C7390421821042104210410883184529D0
:10008300C7390C6375AD3CE7BEF7FFFFFFFFFFFF0A
:10009300FFFFFFFFFFFFFFFFFFFFFFFFFFFFFFFF6D
:1000A300FFFFFFFFFFFFFFFFFFFFFFFFFFFFFFFF5D
:1000B300FFFFFFFFFFFF3CE7B2940842C318821023
:1000C300042145298631863186318631452904212B
:1000D30082104108C3180842F39C3CE7FFFFFFFF6F
:1000E300FFFFFFFFFFFFFFFFFFFFFFFFFFFFFFFF1D
:1000F300FFFFFFFFFFFFFFFFFFFFFFFFFFFFFFFF0D
:10010300FFFFFFFFFBDE0C63C318C3184529C73984
:10011300084208420842084208420842C739C73920
:1001230086318631042141088210CB5ABAD6FFFFAB
:10013300FFFFFFFFFFFFFFFFFFFFFFFFFFFFFFFFCC
:10014300FFFFFFFFFFFFFFFFFFFFFFFFFFFFFFFFBC
:10015300FFFFFBDECB5A82104529C739084208420C
:10016300094A494A494A494A494A494A0842C73910
:10017300C739C7398631452983180000C84138C6B5
:10018300FFFFFFFFFFFFFFFFFFFFFFFFFFFFFFFF7C
:10019300FFFFFFFFFFFFFFFFFFFFFFFFFFFFFFFF6C
:1001A3007DEF8E7382104529C7390842094A8A5266
:1001B3003084CF7B8A52494A4A52494ACB5ACF7B31
:1001C3000C630842C73986314529C3180000494AE0
:1001D300BAD6FFFFFFFFFFFFFFFFFFFFFFFFFFFF9A
:1001E300FFFFFFFFFFFFFFFFFFFFFFFFFFFFFFFF1C
:1001F300F39CC3180421C7390842494A494A7294F7
:100203007DEF7DEFB2944A52494A8A5275ADBEF7EB
:10021300BAD64D6BC739C73986314529C31841084A
:10022300CF7B7CE7FFFFFFFFFFFFFFFFFFFFFFFF2A
:10023300FFFFFFFFFFFFFFFFFFFFFFFFFFFFBAD639
:1002430008428210C7390842494A494A8E73FBDE85
:10025300FFFFBEF7BAD68E73084230843CE77DEFCA
:10026300FFFFB6B5494AC7398631452904214108FC
:100273004529B6B5FFFFFFFFFFFFFFFFFFFFFFFFAE
:10028300FFFFFFFFFFFFFFFFFFFFFFFFBEF7718CC5
:10029300410845290842494A494A4A52B294BEF79D
:1002A300BEF7B294CF7BCF7B494AB6B5F39C0C63C0
:1002B30038C6BAD60C638739C73986314529C3187E
:1002C300410830847DEFFFFFFFFFFFFFFFFFFFFFCC
:1002D300FFFFFFFFFFFFFFFFFFFFFFFF3CE7CB5ADF
:1002E3004108C7390842494A4A528A52F39CFFFFE0
:1002F3007DEFC739C3180C63CB5AB6B5B294CB5A4A
:1003030075ADFAD64D6B8739C73986314529042136
:1003130041088A5279CEFFFFFFFFFFFFFFFFFFFF78
:10032300FFFFFFFFFFFFFFFFFFFFFFFF38C6863121
:100333000421C841494A494A4A52494AB18CBEF745
:10034300BEF7B294CF7BCF7B494A74A57DEF7CE7A0
:10035300BEF779CE0C63C739C739863145290421E5
:100363008210452975ADBEF7FFFFFFFFFFFFFFFFBB
:10037300FFFFFFFFFFFFFFFFFFFFFFFF34A582101B
:1003830086310842494A494A8A52494A4D6BBAD68C
:10039300FFFFFFFF79CE0D63C739CF7B7DEFFFFFF3
:1003A300FFFF75AD08428631C73986314529452996
:1003B300C318C318B2947DEFFFFFFFFFFFFFFFFFDA
:1003C300FFFFFFFFFFFFFFFFFFFFBEF7B28C4108F8
:1003D300C7390842494A494A8A528A524A4AD07B13
:1003E3007AC67BBE906BC9398831C939B384BBC621
:1003F300F8B5CC5A8631C739C739863145294529DD
:10040300C420410830843CE7FFFFFFFFFFFFFFFFED
:10041300FFFFFFFFFFFFFFFFFFFF3CE78A4AC31019
:10042300C7390842494A494A4A4A4A42093A084AA4
:10043300096B497BC67A05834683C57AC672097BF5
:10044300485A8731882188298631863145294529AB
:10045300042141084A4ABAD6FFFFFFFFFFFFFFFF0F
:10046300FFFFFFFFFFFFFFFFFFFFF7C582500541BF
:10047300C7290842494A4A42494A097B889BC6B36D
:1004830021D4A0DCE1E461ED61ED21EDA0E420DC09
:1004930080CB43ABC482065A472146294529042908
:1004A300041982108218F39C7DEFFFFFFFFFFFFF0B
:1004B300FFFFFFFFFFFFFFFF7DEF4D9300A082B81B
:1004C300C7310932494A867A43C36BEDF4F6EBFD33
:1004D30020FD20FD60FDA0FDA0FD60FD60FD20FD71
:1004E300E0FCA0FC60F4C1DB839AC54945290419EB
:1004F300C42082380050CB6ABAD6FFFFFFFFFFFF4C
:10050300FFFFFFFFFFFFFFFFFBEE04A100C000F0B2
:10051300C3A0C8414942059B20FCA4FC69FDE8FD3A
:1005230063FD20FD60FD60FD60FD20FD20FDE0FC1E
:10053300E0FCA0FC60FC20FC41D3C5494519C4384C
:10054300826841880070495A79CEFFFFFFFFFFFFA1
:10055300FFFFFFFFFFFFFFFFFBF682C000D086C156
:1005630046F141C8457989528862866AC67AC4BB16
:10057300E1FC60FD60FDA0FDA0FD60FD60FDE0FC11
:1005830060E403938472446AC5414529C35841A872
:10059300409800B000600C6B79CEFFFFFFFFFFFFB8
:1005A300FFFFFFFFFFFF7DEFCE83828800F8C4D8F3
:1005B3000CF38AFA82E882B04569C7510842083AC7
:1005C300865A839BA2BC22CD21CDA1C422B4C47A76
:1005D300063A862945290531C450419000C000A838
:1005E30000A000A800304A4ABAD6FFFFFFFFFFFF72
:1005F300FFFFFFFF7DEF8E73C318053982A800F854
:10060300C3F84DFB4DFBC7F9C3F082D8C3B00481D7
:1006130045614651864986494641454145414541E3
:1006230005490461829041B000D000C800A800A829
:1006330000B8415882108210B294BEF7FFFFFFFF4B
:10064300FFFFBEF7CF7B82100421862986410499E0
:1006530040E841F886F9CBFA49FA82F800F800F04D
:1006630000E841D841D041C041C041C041C041C868
:1006730000D000E000E000D800D000B800A8418816
:100683008248821082100000452979CEFFFFFFFFC8
:10069300BEF7F39C8210C31845298631C731307CDD
:1006A300F3DC86E100F000F841F841F800F800F8C7
:1006B30000F800F800F800F800F800F800F800F877
:1006C30000E800E000E000D800C841A08A9A0C636B
:1006D300041182108210410800004D6B7DEFFFFF73
:1006E300FBDE08424210452986318631494A38BE2D
:1006F300FFFF38D686A900C800E000F000F800F834
:1007030000F800F800F800F800F800F800F000F036
:1007130000E800E000D0C3988A8AB2A4BAC6F7B54D
:10072300084241088210410800004529F7BDFFFF38
:10073300718C410804214529863186310C633CE7DD
:10074300FFFF79D646B900E042C882A882B041D8FB
:1007530082E882F041E841E841E841F041E841D8CC
:1007630004C108924D8B34A5FBC6FBD6BACE3CE739
:100773003084C3184108410800004108CF7B7DEF56
:10078300494A000004214529463186313084FFFF60
:10079300FFF7F7DD09DA83F801F042C08298499A3E
:1007A300F3B4F3CC71BC8EBB8EBB30BC71BCF3BC59
:1007B300B6BDFBCEBEE77DE73BDFBAD679CEFBDE27
:1007C30075AD86314108410800000000494AFBDE4F
:1007D300042141080421452945298739B294FFFFA3
:1007E300BEF734DD0CEB09FA00F001D800D88BD248
:1007F3007DE7FFFFFFFFFFFFFFFFFFFFFFFFFFFFA0
:10080300FFFFBEFF7DEFFBDEFBDEBAD679CEBAD6A5
:1008130078C6C7390000410800000000C73979CE07
:1008230000008210C318042105298631B39CFFFF01
:10083300FFF775DDC7E9C7F901F801F000E849E200
:10084300FBEEFFFFFFFFFFFFFFFFFFFFFFFFFFFFCA
:10085300FFFFBEF77DEFFBDEFBDEBAD679CEBAD65D
:10086300B9CE08420000000000000000C73938C6B6
:100873000000821082100421042145293084FFFFE7
:10088300FFFF38DEC4D000F001F800F800F008D212
:10089300FBE6FFFFFFFFFFFFFFFFFFFFFFFFFFFF82
:1008A300FFFFBEF77DEFFBDEBAD679CE79CEBAD69F
:1008B30079CEC7394108000000000000863138C6F0
:1008C30000000000C318CB5A8631C318CB5A7DEF02
:1008D300FFFF7DEFCFBBC3B041D041D082B84DB352
:1008E3007DE7FFFFFFFFFFFFFFFFFFFFFFFFFFFFAF
:1008F300BEF7BEF73DEFFBDEBAD679CE79CEFAD698
:10090300F7BD04218631042100000000863138C67A
:100913008631C318CB5A75ADCF7B41088631F7BDFD
:10092300FFFFFFFFBEEF74B5309C309C72A4BBD6B3
:10093300FFFFFFFFFFFFFFFFFFFFFFFFFFFFFFFFC4
:10094300BEF77DEF3CE7FBDEBAD679CE79CE3CE746
:10095300718C81080C63CF7B821000008A5238C6E9
:1009630075AD718CB6B53CE7FBDEC7390000CF73BC
:10097300FFFFFFFFFFFFFFFFFFFFFFFFFFFFFFFF84
:10098300FFFFFFFFFFFFFFFFFFFFFFFFFFFFBEF7BD
:100993007DEF7DEF3BDFFAD679CE79CEFBDEB9CEA4
:1009A300C739C420718CBAD6718CCB5AB294BAD6DB
:1009B300FFFF7DEF7DEFFFFFFFFFB6B5462905196A
:1009C30075A5FFFFFFFFFFFFFFFFFFFFFFFFFFFF18
:1009D300FFFFFFFFFFFFFFFFFFFFFFFFFFFFBEF76D
:1009E3007DEF3CE7FBDEBAD679CEBAD6FCDE4E63AA
:1009F30042080C63F7BDBEF7FFFFFBDEFBDEBEF76D
:100A0300FFFFFFFFFFFFFFFFFFFFFFFFF49C04213A
:100A13000521B6A5FFFFFFFFFFFFFFFFFFFFFFFF5E
:100A2300FFFFFFFFFFFFFFFFFFFFBEF7BEF77DEFF7
:100A33003CE7FBDEBAD679CEFBDEBBD6D173831897
:100A43008639349DBDEFFFFFFFFFFFFFFFFFFFFF71
:100A5300FFFFFFFFFFFFFFFFBEFF35D6EBCC43B326
:100A630040510519F58CBEEFFFFFFFFFFFFFFFFFAE
:100A7300FFFFFFFFFFFFBEF7BEF77DEF7DEF3CE714
:100A8300FBDEBADEBAD63CDF3ABE4F63824940A3EF
:100A930023B4CC833ABEFFFFFFFFFFFFFFFFFFFF3F
:100AA300FFFFFFFFFFFFBFF7B5BD829220F4A0FC5D
:100AB30060E4408284418F6B77AD3DE7FFFFFFFF2A
:100AC300FEFFBEF7BEF7BEF77DEF7DEF3CE7FBDE33
:100AD300FBDE3DE7BBCE369D0B6B416A60C420FE57
:100AE30060F5008BC76A38C6BEF7FFFFFFFFFFFF45
:100AF300FFFFFFFFFFFF7DEF4B7B80B2A0FCA0FC5D
:100B0300E0FCE0FCC0CBC18A45624D6BB394F7BDFA
:100B13003DDFFFF7FFFFBEF77DEF7DEF7DE73DDFB5
:100B2300BAC675A58D7B847A40B3E0ECE0FDE0FDA9
:100B330060F520E5A0D40A6BFBDEFFFFFFFFFFFF9C
:100B4300FFFFFFFFFFFF7DEFCC9340EB60FCA0FCBA
:100B5300E0FC20FD60FD20F5A0D4C0BB429B458B8B
:100B63006B9CAE9C718CB394339D34A5F2A4F0B40A
:100B7300CA9B049B40BB20E420FDA0FDA0FDE0FD3B
:100B8300E0FDE0FD20C4885A38BEFFFFFFFFFFFFF2
:100B9300FFFFFFFFFFFFFFFF78D646AB40DB20F4EC
:100BA30060FCA0FCE0FC60FDA0FD60FD20F5A0DC86
:100BB300C0B3C05186290D638F7B0D5BC741018292
:100BC30000C3C0E360FCA0FCE0FCE0FC60F560F562
:100BD30020E5809B8662308479CEFFFFFFFFFFFF15
:100BE300FFFFFFFFFFFFFFFFFFFF38C62D9C0593AD
:100BF30043A382B3C2BBC2BB22B482A34293C37AD0
:100C030085620B637184B6B579CE79C6B5AD709440
:100C13004A8B06830493049B439B439B4393048324
:100C230008738D73B39479CE7DEFFFFFFFFFFFFF52
:100C3300FFFFFFFFFFFFFFFFFFFFFFFF3CDF38BEAC
:100C430075B533A533A5F39CF39CF39CF394F39C04
:100C530035A5F8BDFBDEBEF7FFFFFFFFFFFF7EEF0D
:100C6300BBD6F8BDB6AD75AD34A5339D349D35A562
:100C7300B7AD79C63CE7BEF7FFFFFFFFFFFFFFFFFE
:100C830000000000000000000000800000FEFF01E3
:100C930000FEFF010006C0000006C0000006C00001
:100CA30000FEFF000006C0000006C0000006C000F2
:100CB30000FEFF000006C0000006C00000020000A6
:100CC30030300C1CF07FFC3F30300C1C30300C1CDF
:100CD30030300C1C30300C1CF03FFC1F30300C1C2F
:100CE30030300C1C30300C1C30300C1CF03FFC1F1F
:100CF300F03FFC1F30300C1C3010040C00000000CF
:100D03000000000000000000C0000808C0F1FF1F41
:100D1300C0F0FF1FC0484C1CC4DCCC1DCCDC8D1DB7
:100D2300DC8E8D1DD8060E1FF8C3EF1DF8F1EC1CE9
:100D3300D0601D1CC01C770CFE9FE7003483E30CBE
:100D430030C3FF1F30C3610030E3610030E361064D
:100D530030F3FF0F30DB610030FB610438DB610EE1
:100D630018CFFF0F18C7610098C761000CC3613823
:100D730004C2FF3F06C0010002C0010000000000E2
:100D83000000000000000000000000000000000060
:100D930000000008080808080808000018180000E8
:100DA30000486C2412000000000000000000000056
:100DB3000000002424247F1212127F12121200005A
:100DC3000000081C2A2A0A0C1828282A2A1C0808AA
:100DD30000000022251515152A58545454220000EA
:100DE3000000000C1212120A76252911916E0000E0
:100DF30000060604030000000000000000000000DD
:100E030000402010100808080808081010204000AF
:100E13000002040808101010101010080804020043
:100E23000000000008086B1C1C6B08080000000091
:100E330000000000080808087F08080808000000F0
:100E4300000000000000000000000000060604038C
:100E53000000000000000000FE0000000000000091
:100E63000000000000000000000000000606000073
:100E730000008040402020101008080404020200F3
:100E83000000001824424242424242422418000019
:100E9300000000080E08080808080808083E0000BB
:100EA3000000003C4242422020100804427E000021
:100EB3000000003C4242201820404042221C000017
:100EC300000000203028242422227E2020780000E5
:100ED3000000007E0202021A26404042221C00004B
:100EE300000000382402021A26424242241800005D
:100EF3000000007E222210100808080808080000DD
:100F03000000003C4242422418244242423C00007A
:100F1300000000182442424264584040241C000050
:100F2300000000000000181800000000181800005E
:100F33000000000000000008000000000008080492
:100F430000000040201008040204081020400000A4
:100F53000000000000007F0000007F000000000090
:100F630000000002040810204020100804020000C2
:100F73000000003C424246402010100018180000B8
:100F83000000001C225A555555552D42221C0000C5
:100F93000000000808181414243C224242E7000011
:100FA3000000001F2222221E22424242221F000072
:100FB3000000007C4242010101010142221C0000A9
:100FC3000000001F2242424242424242221F0000CE
:100FD3000000003F4212121E12120242423F000062
:100FE3000000003F4212121E12120202020700000A
:100FF3000000003C2222010101712122221C000079
:10100300000000E7424242427E42424242E7000081
:101013000000003E0808080808080808083E000009
:101023000000007C10101010101010101010110F81
:101033000000007722120A0E0A1212222277000001
:10104300000000070202020202020202427F0000C5
:1010530000000077363636362A2A2A2A2A6B000001
:10106300000000E346464A4A525252626247000079
:101073000000001C2241414141414141221C00002A
:101083000000003F424242423E02020202070000C9
:101093000000001C2241414141414D53321C60007C
:1010A3000000003F4242423E1212222242C7000089
:1010B3000000007C4242020418204042423E0000ED
:1010C3000000007F4908080808080808081C0000F9
:1010D300000000E74242424242424242423C000098
:1010E300000000E7424222242414141808080000D8
:1010F3000000006B49494949555536222222000018
:10110300000000E7422424181818242442E70000B2
:10111300000000772222141408080808081C0000A5
:101123000000007E2120101008040442423F00000A
:10113300007808080808080808080808080878005C
:101143000000020204040808081010202020404078
:10115300001E1010101010101010101010101E0090
:101163000038440000000000000000000000000000
:10117300000000000000000000000000000000FF6D
:10118300000608000000000000000000000000004E
:10119300000000000000003C4278444242FC000092
:1011A300000000030202021A26424242261A0000ED
:1011B300000000000000003844020202443800002E
:1011C30000000060404040784442424264D800003E
:1011D300000000000000003C427E0202423C00008E
:1011E300000000F08808087E08080808083E000090
:1011F300000000000000007C22221C023C42423C12
:10120300000000030202023A4642424242E7000063
:101213000000000C0C00000E08080808083E00003F
:101223000000003030000038202020202020221E23
:101233000000000302020272120A16122277000053
:101243000000000E0808080808080808083E000007
:10125300000000000000007F9292929292B700007B
:10126300000000000000003B4642424242E700000B
:10127300000000000000003C42424242423C0000A9
:10128300000000000000001B26424242221E02070B
:10129300000000000000007844424242447840E0ED
:1012A30000000000000000774C040404041F000049
:1012B300000000000000007C42023C40423E00006F
:1012C300000000000008083E080808080830000075
:1012D30000000000000000634242424262DC000062
:1012E30000000000000000E7422424140808000066
:1012F30000000000000000EB494955552222000080
:10130300000000000000007624181818246E000066
:1013130000000000000000E7422424141808080716
:10132300000000000000007E22100808447E000038
:1013330000C0202020202010202020202020C000BA
:10134300101010101010101010101010101010109A
:101353000006080808080810080808080808060016
:101363000C32C2000000000000000000000000007A
:103A5F005658313A005679313A00434858313A00B6
:103A6F00434859313A005658323A005679323A00A3
:103A7F00434858323A00434859323A0056583A00B0
:103A8F0056793A004348583A004348593A0041643E
:103A9F006A757374204F4B212020546F7563682013
:103AAF00416E79776865726520546F20436F6E742D
:0B3ABF00696E756500583A00593A0026
:103CB9004200A411A94200A61C9B42009800A542FB
:043CC900009A0EC887
:063E7600A2B4E433FF22B8
:093E6D00D294D297D2B0D2972270
:103E0400E4FEC297EF25E0FF92B0C297000000D213
:093E1400970000000EEEB408EB6B
:013E1D002282
:103DE200E4FDFFFEEF25E0FFEE33FED29700000078
:103DF200C29700000030B104EF4401FF0DEDB40C96
:013E0200E3DC
:013E0300229C
:103E1E00C294123E04D29700000000C29700000028
:063E2E0000123DE2D294F7
:013E3400226B
:022EF400A9072C
:102EF600E490007EF0A3F0FBFAAF01123E1EAC0692
:102F0600AD07EB25E0FFEA33FE74602FF58274000F
:102F16003EF583ECF0A3EDF00BBB00010AEB640F6A
:102F26004A70D6E4FAFBEB2401FEE43A90005EF028
:102F3600A3CEF090005EE0FEA3E0FFC3940FEE94F4
:102F4600004003022FF0EF25E0FFEE33FE74602F02
:102F5600F58274003EF583E0FCA3E0FDEB25E0FF7F
:102F6600EA33FE74602FF58274003EF583E0FEA31B
:102F7600E0FFD39DEE9C405E900080EEF0A3EFF064
:102F860090005FE025E0FF90005EE033FE74602F66
:102F9600F58274003EF583E0FCA3E0FDEB25E0FF3F
:102FA600EA33FE74602FF58274003EF583ECF0A3DD
:102FB600EDF0900080E0FCA3E0FD90005FE025E0EE
:102FC600FF90005EE033FE74602FF58274003EF5DC
:102FD60083ECF0A3EDF090005FE004F06003022FB5
:102FE6003990005EE004F0022F390BBB00010AEBBA
:102FF600640E4A6003022F2CE490007EF0A3F0FAE0
:103006007B05EB25E0FFEA33FE74602FF582740042
:103016003EF583E0FEA3E0FF90007FE02FF09000F6
:103026007EE03EF00BBB00010AEB640A4A70D390C7
:10303600007EE0FEA3E0FF7C007D0512240FA3EED8
:04304600F0A3EFF014
:01304A002263
:0B3ACA00900056EBF0A3EAF0A3E9F037
:103AD5007FD0122EF490005CEEF0A3EFF07F9012F1
:103AE5002EF4C390005DE0946490005CE094004087
:103AF50008EF9464EE940050037F002290005CE090
:103B0500F9A3E0FD900056E0FBA3E0FAA3E0C98D20
:103B1500F012247A900059E0FBA3E0FAA3E0F9EE55
:073B25008FF012247A7F01EA
:013B2C002276
:0B304B00900048EBF0A3EAF0A3E9F0CE
:103056009000597401F0A37400F0A37450F07B0142
:103066007A00794E123ACAEF7002FF229000597424
:1030760001F0A37400F0A37454F07B017A00795236
:10308600123ACAEF7002FF2290004EE0FEA3E0FF64
:10309600900052E0FCA3E0FDD39FEC9E500EED2481
:1030A60014FDE43CFCC3EF9DEE9C402A900052E0E8
:1030B600FEA3E0FF90004EE0FCA3E0FDD39FEC9E54
:1030C6004003023179ED2414FDE43CFCC3EF9DEE90
:1030D6009C4003023179900050E0FEA3E0FF90008F
:1030E60054E0FCA3E0FDD39FEC9E500EED2414FDAE
:1030F600E43CFCC3EF9DEE9C4024900054E0FEA30C
:10310600E0FF900050E0FCA3E0FDD39FEC9E5063EF
:10311600ED2414FDE43CFCC3EF9DEE9C505590005D
:1031260052E0FEA3E0FF90004FE02FFF90004EE03C
:103136003EC313F9EF13FF900048E0FBA3E0FAA3A8
:10314600E0C98FF012247A900054E0FEA3E0FF90CD
:103156000051E02FFF900050E03EC313F9EF13FF3C
:1031660090004BE0FBA3E0FAA3E0C98FF012247AAB
:053176007F01227F0033
:01317B002231
:1039E400E4900043F0900043E0706A90004B74014F
:1039F400F0A37400F0A374A2F07B017A0079A01202
:103A0400304BEF60E67F0A7E00123DBC90004B74A1
:103A140001F0A37400F0A37446F07B017A007944AA
:103A240012304BEF60E6900044E0FEA3E0FF90000C
:103A3400A0E0B506B0A3E0B507AB900046E0FEA356
:103A4400E0FF9000A2E06E7003A3E06F7097900017
:0A3A54004304F08090900043E0FF6F
:013A5E002245
:10339400900043EEF0A3EFF0A3ECF0A3EDF0900067
:1033A40043E0FAA3E0FB24F4FFEA34FFFEC007EB9A
:1033B400240DFBE43AFAA3E0FFA3E090004DCFF024
:1033C400A3EFF0D0071229FB900043E0FAA3E0FB3F
:1033D400FFAE02C006C007900046E024F4FD900052
:1033E40045E034FFFCE0FEA3E0240DFFE43E900042
:1033F4004DF0A3EFF0D007D0061229FB900044E073
:103404002401FF900043E03400FE900046E02401D4
:10341400FD900045E03400FC123C0F900044E02491
:10342400FFFF900043E034FFFE900046E02401FDDE
:10343400900045E03400FC123C0F900044E024016D
:10344400FF900043E03400FE900046E024FFFD902E
:103454000045E034FFFC123C0F900044E024FFFFE1
:10346400900043E034FFFE900046E024FFFD90000E
:0834740045E034FFFC023C0FAF
:10329100E490000AF07B0190004B04F0A37400F06D
:1032A100A374A2F07A0079A012304BEF70030233BD
:1032B1008E90000A7401F0900098E0FEA3E0FFD325
:1032C1009000A1E09F9000A0E09E400BAB07AA06F2
:1032D100E0FEA3E0FF80139000A0E0FEA3E0FBAAC4
:1032E10006900098E0FEA3E0FFC3EF9BFFEE9AFE7D
:1032F100E49400FDE49400FCE47BE87A03F9F8121D
:103301002499C006C0079000A4E0FEA3E0FBAA0632
:10331100E4F9F8D007D00612252490009CEEF0A322
:10332100EFF090009AE0FEA3E0FFD39000A3E09FAE
:103331009000A2E09E400BAB07AA06E0FEA3E0FFCF
:1033410080139000A2E0FEA3E0FBAA0690009AE0A1
:10335100FEA3E0FFC3EF9BFFEE9AFEE49400FDE4C1
:103361009400FCE47BE87A03F9F8122499C006C0C2
:10337100079000A6E0FEA3E0FBAA06E4F9F8D00757
:10338100D00612252490009EEEF0A3EFF090000AE3
:02339100E0FF5B
:013393002217
:10137300E4900042F0F090008EF0A3741FF074FF2D
:10138300900093F0A3F0FFFE123B8B90008E74F855
:10139300F0A3E4021A9620B4FD1239E4EF60429000
:1013A30000A0E0FEA3E0FFE4FCFD900042E0FB753B
:1013B300F008A42422F582E43400F5831225D590A5
:1013C30000A2E0FEA3E0FFE4FCFDEB75F008A4241B
:1013D30026F582E43400F5831225D5900042E0041B
:1013E300F0900042E024FE601A14602814603A244E
:1013F3000370A374FFFFFE123B8B30B4FD7D327C80
:1014030000801F74FFFFFE123B8B30B4FD7DAD7C6B
:1014130001021AA274FFFFFE123B8B30B4FD7DADB7
:101423007C017FED7E02021AA674FFFFFE123B8B46
:1014330030B4FD900022E0FCA3E0FDA3E0FEA3E0B6
:10144300FF90002AE0F8A3E0F9A3E0FAA3E0FBD3BE
:101453001225C44034900022E0F8A3E0F9A3E0FA97
:10146300A3E0FB90002AE0FCA3E0FDA3E0FEA3E0E1
:101473009BFFEE9AFEED99FDEC98FCEF2401FFE44F
:101483003EFEE43DFDE43C803690002AE0F8A3E014
:10149300F9A3E0FAA3E0FB900022E0FCA3E0FDA3A4
:1014A300E0FEA3E0C39BFFEE9AFEED99FDEC98FCF2
:1014B300EF24FFFFEE34FFFEED34FFFDEC34FFFCC1
:1014C300E47BE87A03F9F8122499E47BBC7A02F905
:1014D300F8122524E41223259000061225D5900046
:1014E30022E0FCA3E0FDA3E0FEA3E0FF90002AE0DE
:1014F300F8A3E0F9A3E0FAA3E0FBD31225C4E4FFC9
:10150300FE7D487C42900006E0F8A3E0F9A3E0FAF0
:10151300A3E0FB4034122112E4FBFA797A784412F7
:10152300221BC004C005C006C007900022E0FCA334
:10153300E0FDA3E0FEA3E0FFE4122325D003D002E5
:10154300D001D00012201D8032122112E4FBFA795F
:101553007A784412221BC004C005C006C00790005D
:1015630022E0FCA3E0FDA3E0FEA3E0FFE4122325B9
:10157300D003D002D001D0001220211223639000A7
:1015830016EEF0A3EFF0900026E0FCA3E0FDA3E04D
:10159300FEA3E0FF900036E0F8A3E0F9A3E0FAA38E
:1015A300E0FBD31225C4401D900026E0F8A3E0F928
:1015B300A3E0FAA3E0FB900036E0FCA3E0FDA3E088
:1015C300FEA3E0801C900036E0F8A3E0F9A3E0FA64
:1015D300A3E0FB900026E0FCA3E0FDA3E0FEA3E074
:1015E300C39BFFEE9AFEED99FDEC98FCEF24FFFF01
:1015F300EE34FFFEED34FFFDEC34FFFCE47BE87AD0
:1016030003F9F8122499E47B7C7A01F9F812252472
:10161300E412232590000E1225D5900026E0FCA3AA
:10162300E0FDA3E0FEA3E0FF900036E0F8A3E0F9BD
:10163300A3E0FAA3E0FBD31225C4E4FFFE7D487CBC
:101643004290000EE0F8A3E0F9A3E0FAA3E0FB4028
:1016530034122112E4FBFA797A784412221BC00473
:10166300C005C006C007900026E0FCA3E0FDA3E090
:10167300FEA3E0FFE4122325D003D002D001D00063
:1016830012201D8032122112E4FBFA797A78441277
:10169300221BC004C005C006C007900026E0FCA3BF
:1016A300E0FDA3E0FEA3E0FFE4122325D003D00274
:1016B300D001D00012202112236390001AEEF0A370
:1016C300EFF0900032E0FCA3E0FDA3E0FEA3E0FF17
:1016D30090003AE0F8A3E0F9A3E0FAA3E0FBD31209
:1016E30025C44034900032E0F8A3E0F9A3E0FAA364
:1016F300E0FB90003AE0FCA3E0FDA3E0FEA3E09B47
:10170300FFEE9AFEED99FDEC98FCEF2401FFE43E19
:10171300FEE43DFDE43C803690003AE0F8A3E0F9B6
:10172300A3E0FAA3E0FB900032E0FCA3E0FDA3E01A
:10173300FEA3E0C39BFFEE9AFEED99FDEC98FCEF50
:1017430024FFFFEE34FFFEED34FFFDEC34FFFCE439
:101753007BE87A03F9F8122499E47BBC7A02F9F85E
:10176300122524E412232590000A1225D590003275
:10177300E0FCA3E0FDA3E0FEA3E0FF90003AE0F865
:10178300A3E0F9A3E0FAA3E0FBD31225C4E4FFFE30
:101793007D487C4290000AE0F8A3E0F9A3E0FAA3B5
:1017A300E0FB4034122112E4FBFA797A78441222E6
:1017B3001BC004C005C006C007900032E0FCA3E0D4
:1017C300FDA3E0FEA3E0FFE4122325D003D002D063
:1017D30001D00012201D8032122112E4FBFA797A23
:1017E300784412221BC004C005C006C00790003213
:1017F300E0FCA3E0FDA3E0FEA3E0FFE4122325D079
:1018030003D002D001D000122021122363900018CC
:10181300EEF0A3EFF090002EE0FCA3E0FDA3E0FECA
:10182300A3E0FF90003EE0F8A3E0F9A3E0FAA3E011
:10183300FBD31225C4401D90002EE0F8A3E0F9A3CA
:10184300E0FAA3E0FB90003EE0FCA3E0FDA3E0FE92
:10185300A3E0801C90003EE0F8A3E0F9A3E0FAA324
:10186300E0FB90002EE0FCA3E0FDA3E0FEA3E0C3B9
:101873009BFFEE9AFEED99FDEC98FCEF24FFFFEE43
:1018830034FFFEED34FFFDEC34FFFCE47BE87A0328
:10189300F9F8122499E47B7C7A01F9F8122524E4FF
:1018A3001223259000121225D590002EE0FCA3E010
:1018B300FDA3E0FEA3E0FF90003EE0F8A3E0F9A360
:1018C300E0FAA3E0FBD31225C4E4FFFE7D487C428B
:1018D300900012E0F8A3E0F9A3E0FAA3E0FB4034A0
:1018E300122112E4FBFA797A784412221BC004C055
:1018F30005C006C00790002EE0FCA3E0FDA3E0FEB8
:10190300A3E0FFE4122325D003D002D001D00012BC
:10191300201D8032122112E4FBFA797A78441222D4
:101923001BC004C005C006C00790002EE0FCA3E066
:10193300FDA3E0FEA3E0FFE4122325D003D002D0F1
:1019430001D00012202112236390001CEEF0A3EFBC
:10195300F090000AE0FCA3E0FDA3E0FEA3E0FF900B
:101963000006E0F8A3E0F9A3E0FAA3E0FB1222B833
:1019730060324030E4FFFE7D7A7C4490000AE0F858
:10198300A3E0F9A3E0FAA3E0FB122021900006E014
:10199300F8A3E0F9A3E0FAA3E0FB1222B860054044
:1019A30003021A9290000AE0FCA3E0FDA3E0FEA369
:1019B300E0FF900006E0F8A3E0F9A3E0FAA3E0FB60
:1019C3001222B8502EE4FFFE7D7A7CC490000AE018
:1019D300F8A3E0F9A3E0FAA3E0FB122021900006AC
:1019E300E0F8A3E0F9A3E0FAA3E0FB1222B8500366
:1019F300021A92900012E0FCA3E0FDA3E0FEA3E034
:101A0300FF90000EE0F8A3E0F9A3E0FAA3E0FB12D5
:101A130022B8602F402DE4FFFE7D7A7C44900012B3
:101A2300E0F8A3E0F9A3E0FAA3E0FB122021900081
:101A33000EE0F8A3E0F9A3E0FAA3E0FB1222B860FA
:101A430002504C900012E0FCA3E0FDA3E0FEA3E0F3
:101A5300FF90000EE0F8A3E0F9A3E0FAA3E0FB1285
:101A630022B85045E4FFFE7D7A7CC4900012E0F872
:101A7300A3E0F9A3E0FAA3E0FB12202190000EE01B
:101A8300F8A3E0F9A3E0FAA3E0FB1222B8501AE4AA
:101A9300900042F074FFFFFE123B8B7D327C007F8F
:101AA300327E0012339402139990000AE0FCA3E003
:101AB300FDA3E0FEA3E0FF900006E0F8A3E0F9A396
:101AC300E0FAA3E0FB122021E4FBFAF978401222AA
:101AD3001B1223639000A4EEF0A3EFF0900012E03A
:101AE300FCA3E0FDA3E0FEA3E0FF90000EE0F8A35B
:101AF300E0F9A3E0FAA3E0FB122021E4FBFAF97872
:101B03004012221B1223639000A6EEF0A3EFF09085
:101B13000018E0FEA3E0FF900017E02FFF900016EF
:101B2300E03EC313FEEF13FF900098EEF0A3EFF037
:101B330090001CE0FEA3E0FF90001BE02FFF90004D
:101B43001AE03EC313FEEF13FF90009AEEF0A3EFEB
:101B5300F074FFFFFE123B8BE490008EF0A3F09035
:101B63000093F0A3741FF0E490001EF0A3F0A3F021
:101B7300A37432F07BFF7A3A795FFD7C00E4FFFEC9
:101B83001237AF90001FE02428F090001EE03400CD
:101B9300F0900006E0FCA3E0FDA3E0FEA3E0FF124B
:101BA30023639000471225D590004B7404F09000F6
:101BB30020E0FCA3E0FD90001EE0FEA3E0FF123452
:101BC3007CE490001EF0A3F0900021E02414F09038
:101BD3000020E03400F0E0FCA3E0FD7BFF7A3A79DB
:101BE30064E4FFFE1237AF90001FE02428F090005A
:101BF3001EE03400F090000EE0FCA3E0FDA3E0FE45
:101C0300A3E0FF1223639000471225D590004B7485
:101C130004F0900020E0FCA3E0FD90001EE0FEA392
:101C2300E0FF12347CE490001EF0A3F0900021E06A
:101C33002414F0900020E03400F0E0FCA3E0FD7BEE
:101C4300FF7A3A7969E4FFFE1237AF90001FE02470
:101C530028F090001EE03400F0900016E0FEA3E0B0
:101C6300FFE4FCFD9000471225D590004B7404F06F
:101C7300900020E0FCA3E0FD90001EE0FEA3E0FF47
:101C830012347CE490001EF0A3F0900021E02414B1
:101C9300F0900020E03400F0E0FCA3E0FD7BFF7A4D
:101CA3003A796FE4FFFE1237AF90001FE02428F06B
:101CB30090001EE03400F090001AE0FEA3E0FFE481
:101CC300FCFD9000471225D590004B7404F0900062
:101CD30020E0FCA3E0FD90001EE0FEA3E0FF123431
:101CE3007C90001EE4F0A37464F0A3E4F0A37432C8
:101CF300F07BFF7A3A7975FD7C007F647E001237B2
:101D0300AF90001FE02428F090001EE03400F09014
:101D1300000AE0FCA3E0FDA3E0FEA3E0FF122363BF
:101D23009000471225D590004B7404F0900020E0FA
:101D3300FCA3E0FD90001EE0FEA3E0FF12347C90C4
:101D4300001EE4F0A37464F0900021E02414F090EA
:101D53000020E03400F0E0FCA3E0FD7BFF7A3A7959
:101D63007A7F647E001237AF90001FE02428F09042
:101D7300001EE03400F0900012E0FCA3E0FDA3E0BD
:101D8300FEA3E0FF1223639000471225D590004B7A
:101D93007404F0900020E0FCA3E0FD90001EE0FE40
:101DA300A3E0FF12347C90001EE4F0A37464F0906F
:101DB3000021E02414F0900020E03400F0E0FCA3C4
:101DC300E0FD7BFF7A3A797F7F647E001237AF9024
:101DD300001FE02428F090001EE03400F09000186B
:101DE300E0FEA3E0FFE4FCFD9000471225D5900040
:101DF3004B7404F0900020E0FCA3E0FD90001EE093
:101E0300FEA3E0FF12347C90001EE4F0A37464F0A0
:101E1300900021E02414F0900020E03400F0E0FC76
:101E2300A3E0FD7BFF7A3A79857F647E001237AFAA
:101E330090001FE02428F090001EE03400F0900092
:101E43001CE0FEA3E0FFE4FCFD9000471225D590C3
:101E5300004B7404F0900020E0FCA3E0FD90001E12
:101E6300E0FEA3E0FF12347C90001EE4F0A3743282
:101E7300F0A3E4F0A37496F07BFF7A3A798BFD7CB0
:101E8300007F327E001237AF90001FE02428F090CD
:101E9300001EE03400F09000A4E0FEA3E0FFE4FCA9
:101EA300FD9000471225D590004B7404F09000205C
:101EB300E0FCA3E0FD90001EE0FEA3E0FF12347CF3
:101EC30090001EE4F0A37432F0900021E02414F09B
:101ED300900020E03400F0E0FCA3E0FD7BFF7A3AC1
:101EE300798F7F327E001237AF90001FE02428F0F5
:101EF30090001EE03400F09000A6E0FEA3E0FFE4B3
:101F0300FCFD9000471225D590004B7404F090001F
:101F130020E0FCA3E0FD90001EE0FEA3E0FF1234EE
:101F23007C90001EE4F0A37432F0900021E02414AE
:101F3300F0900020E03400F0E0FCA3E0FD7BFF7AAA
:101F43003A79937F327E001237AF90001FE0242846
:101F5300F090001EE03400F0900098E0FEA3E0FF54
:101F6300E4FCFD9000471225D590004B7404F090DB
:101F73000020E0FCA3E0FD90001EE0FEA3E0FF12C2
:101F8300347C90001EE4F0A37432F0900021E0242E
:101F930014F0900020E03400F0E0FCA3E0FD7BFFB0
:101FA3007A3A79987F327E001237AF90001FE0248F
:101FB30028F090001EE03400F090009AE0FEA3E0C9
:101FC300FFE4FCFD9000471225D590004B7404F00C
:101FD300900020E0FCA3E0FD90001EE0FEA3E0FFE4
:101FE30012347C90001EE4F0A3741EF0900021E0F4
:101FF300241EF0900020E03400F0E0FCA3E0FD7B21
:10200300FF7A3A799D7F1E7E001237AF1239E4744E
:06201300FFFFFE123B8BF3
:0120190022A4
:10355D009000061225E10000000030B4030235F79B
:10356D009000061225E100000000123291EF60EA92
:10357D007BFF7A3A79C47DFA7C007F0A7E00123790
:10358D00AF9000A0E0FEA3E0FFE4FCFD9000471229
:10359D0025D590004B7404F07DFA7C007F1E7E00D3
:1035AD0012347C7BFF7A3A79C77DFA7C007FB47E3A
:1035BD00001237AF9000A2E0FEA3E0FFE4FCFD9007
:1035CD0000471225D590004B7404F07DFA7C007FE6
:1035DD00C87E0012347C90009CE0FEA3E0FFA3E0C7
:1035ED00FCA3E0FD123C39023567900006E0FCA318
:1035FD00E0FDA3E0FEA3E0FFE4FBFA7980783F1243
:10360D0020219000061225D57F007EE87D7D7C4728
:10361D00900006E0F8A3E0F9A3E0FAA3E0FB122284
:09362D00B8600250030235672267
:10201A000223CFE86480F8E933E83360110460F002
:10202A00ED33EC337009E8FCE9FDEAFEEBFF22042C
:10203A0060DED3EB9FEA9EE99DE8C2E78CF0C2F727
:10204A0095F0400CE8CCF8E9CDF9EACEFAEBCFFBF3
:10205A0012239A85D0F05804700320D5B3E804708F
:10206A00075002B2D50223D992D5EC0460F7E4CC2A
:10207A00C0E0C398F8603B94186008400DD0E0FBBC
:10208A000223B1E4FBFAC9FC8028E830E406E4C97B
:10209A00FBE4CAFCE830E305E4C9CACBFCE8540710
:1020AA006010F8C3E913F9EA13FAEB13FBEC13FC1B
:1020BA00D8F130F52FC3E49CFCEF9BFFEE9AFEEDBE
:1020CA0099FDD0E0FBEF4E4D4C701222DB03022348
:1020DA00D6EC2CFCEF33FFEE33FEED33FDED30E7AB
:1020EA00EB0223B1EF2BFFEE3AFEED39FDD0E0FB18
:1020FA0050130BBB00030223D9ED13FDEE13FEEFC1
:08210A0013FFEC13FC0223B1EA
:10211200EC4D6011E8497017ED33EC3304600DE4C7
:10212200FCFFFEFD22E933E8330470F80223CF12EC
:10213200239A58046009E4CC2481500628500902ED
:1021420023D92840030223D6C0E0EB4A7044B98069
:1021520006D0E0FB0223C5EF4E701CBD8008EBFFEA
:10216200EAFEE9FD80EBE98DF0A4FEE5F00221FB39
:10217200E9CDF9EAFEEBFFEF89F0A4FCE5F0CE89A8
:10218200F0A42EFFE435F0CD89F0A42DFEE435F065
:102192008067EF4E7005BD80D780C3EF8BF0A4AC93
:1021A200F0EE8BF0A42CFCE435F0F8EF8AF0A42CCE
:1021B200E5F038FCE433CB8DF0A42CFCE5F03BF8E1
:1021C200EE8AF0A42CFCE5F038F8E433CF89F0A4D1
:1021D2002CFCE5F038CF3400CE89F0A42FFFE5F0D7
:1021E2003EFEE433C98DF0A42EFEE5F039CD8AF02F
:1021F200A42FFFE5F03EFEE43DFD33D0E0FB5007A7
:102202000BBB000F0223D9EC2CFCEF33FFEE33FEA5
:06221200ED33FD0223B1D3
:102218000223D9EC5D046005E8590470030223CF5A
:1022280012239A580460F6EC4860F2EC7004FDFE44
:10223800FF22C860DB2481C85009C3986002500699
:102248000223D69850CAF582E9294B4A7005AB8219
:102258000223C575F0007C1A7880C3EF9BEE9AEDD7
:1022680099400DC3EF9BFFEE9AFEED99FDE842F011
:10227800DC23ACF0D0E0FFD0E0FED0E0FDAB822064
:10228800E7101BEB60BAEC2CFCEF33FFEE33FEEDEE
:1022980033FD0223B1E803F830E705C0F075F0001C
:1022A800EF2FFFEE33FEED33FD40B830E7C280AAD2
:1022B80074F8CC6480CCC86480C8F582046043C3D9
:1022C800EB9FF5F0EA9E42F0E99D42F0E89C45F06C
:1022D80060305018E5825FFFE582F42B5582FB5091
:1022E800210ABA001D09B90019088016E5825BFBAE
:1022F800E582F42F5582FF50090EBE00050DBD0082
:10230800010CC3EB9FF5F0EA9E42F0E99D42F0E82C
:0D2318009C45F06007CC4820E701B3EC22A3
:1023250075F020800E75F010800575F0087D007E33
:10233500007F003392D530D5031225B6EC3340101B
:10234500EF33FFEE33FEED33FDEC33FCD5F0ED223C
:0E235500E5F0247EA2D513CC92E7CDCEFF2278
:10236300EDD2E7CD33EC3392D524814006E4FFFE72
:10237300FDFC22FCE4CFCECDCC24E0501174FF80D1
:10238300EDC3CC13CCCD13CDCE13CECF13CF04706E
:07239300F030D5DE0225B693
:10239A00E9D2E7C933E833F892D5EDD2E7CD33EC89
:0723AA0033FC5002B2D52202
:1023B100EC30E7100FBF000C0EBE00080DBD00048D
:1023C1000BEB6014A2D5EB13FCED92E7FD2274FF39
:1023D100FCFDFEFF22E480F8A2D574FF13FC7D8092
:0323E100E480EFA6
:10385C00023D89E493A3F8E493A34003F68001F2BC
:10386C0008DFF48029E493A3F85407240CC8C3336D
:10387C00C4540F4420C8834004F456800146F6DF3C
:10388C00E4800B0102040810204080903C85E47E0B
:10389C00019360BCA3FF543F30E509541FFEE49331
:1038AC00A360010ECF54C025E060A840B8E493A3F8
:1038BC00FAE493A3F8E493A3C8C582C8CAC583CA23
:1038CC00F0A3C8C582C8CAC583CADFE9DEE780BEDB
:013CCD0000F6
:1023E400BB010689828A83E0225002E722BBFE02F7
:0923F400E32289828A83E493222A
:1023FD00EF8DF0A4A8F0CF8CF0A428CE8DF0A42EF4
:02240D00FE22AD
:10240F00BC000BBE0029EF8DF084FFADF022E4CCB1
:10241F00F875F008EF2FFFEE33FEEC33FCEE9DEC7A
:10242F00984005FCEE9DFE0FD5F0E9E4CEFD22EDC0
:10243F00F8F5F0EE8420D21CFEADF075F008EF2F0A
:10244F00FFED33FD4007985006D5F0F222C398FDFB
:05245F000FD5F0EA2298
:10246400C5F0F8A3E028F0C5F0F8E5821582700203
:062474001583E038F022A0
:10247A00BB010A89828A83F0E5F0A3F0225006F7AD
:0F248A0009A7F01922BBFE06F3E5F009F31922AA
:10249900E88FF0A4CC8BF0A42CFCE98EF0A42CFCE2
:1024A9008AF0EDA42CFCEA8EF0A4CDA8F08BF0A460
:1024B9002DCC3825F0FDE98FF0A42CCD35F0FCEBBF
:1024C9008EF0A4FEA9F0EB8FF0A4CFC5F02ECD3984
:0F24D900FEE43CFCEAA42DCE35F0FDE43CFC22F1
:1024E80075F008758200EF2FFFEE33FECD33CDCCAB
:1024F80033CCC58233C5829BED9AEC99E58298402E
:102508000CF582EE9BFEED9AFDEC99FC0FD5F0D60A
:10251800E4CEFBE4CDFAE4CCF9A88222B800C1B934
:102528000059BA002DEC8BF084CFCECDFCE5F0CB72
:10253800F97818EF2FFFEE33FEED33FDEC33FCEBAB
:1025480033FB10D703994004EB99FB0FD8E5E4F966
:10255800FA227818EF2FFFEE33FEED33FDEC33FC53
:10256800C933C910D7059BE99A4007EC9BFCE99A47
:10257800F90FD8E0E4C9FAE4CCFB2275F010EF2F8C
:10258800FFEE33FEED33FDCC33CCC833C810D7078C
:102598009BEC9AE899400AED9BFDEC9AFCE899F8C7
:0E25A8000FD5F0DAE4CDFBE4CCFAE4C8F9225A
:0E25B600C3E49FFFE49EFEE49DFDE49CFC2236
:1025C400EB9FF5F0EA9E42F0E99D42F0E89C45F06D
:0125D40022E4
:0C25D500ECF0A3EDF0A3EEF0A3EFF02279
:1025E100A8828583F0D083D0821225F81225F812B3
:1025F10025F81225F8E473E493A3C583C5F0C583D8
:10260100C8C582C8F0A3C583C5F0C583C8C582C843
:0126110022A6
:00000001FF
